{
  "_format": "hh-sol-artifact-1",
  "contractName": "Account",
  "sourceName": "contracts/DataTransfer.sol",
  "abi": [
    {
      "inputs": [
        {
          "internalType": "address",
          "name": "_accountAddress",
          "type": "address"
        }
      ],
      "stateMutability": "nonpayable",
      "type": "constructor"
    },
    {
      "inputs": [],
      "name": "accountAddress",
      "outputs": [
        {
          "internalType": "address",
          "name": "",
          "type": "address"
        }
      ],
      "stateMutability": "view",
      "type": "function"
    },
    {
      "inputs": [
        {
          "internalType": "address",
          "name": "sender",
          "type": "address"
        },
        {
          "internalType": "string",
          "name": "IPFSHash",
          "type": "string"
        },
        {
          "internalType": "string[]",
          "name": "aesKey",
          "type": "string[]"
        },
        {
          "internalType": "string",
          "name": "fileName",
          "type": "string"
        }
      ],
      "name": "addReceived",
      "outputs": [],
      "stateMutability": "nonpayable",
      "type": "function"
    },
    {
      "inputs": [],
      "name": "getAddress",
      "outputs": [
        {
          "internalType": "address",
          "name": "",
          "type": "address"
        }
      ],
      "stateMutability": "view",
      "type": "function"
    },
    {
      "inputs": [
        {
          "internalType": "address",
          "name": "sender",
          "type": "address"
        }
      ],
      "name": "getReceived",
      "outputs": [
        {
          "internalType": "string[]",
          "name": "",
          "type": "string[]"
        }
      ],
      "stateMutability": "view",
      "type": "function"
    },
    {
      "inputs": [],
      "name": "getSenders",
      "outputs": [
        {
          "internalType": "address[]",
          "name": "",
          "type": "address[]"
        }
      ],
      "stateMutability": "view",
      "type": "function"
    },
    {
      "inputs": [],
      "name": "owner",
      "outputs": [
        {
          "internalType": "address",
          "name": "",
          "type": "address"
        }
      ],
      "stateMutability": "view",
      "type": "function"
    }
  ],
  "bytecode": "0x60806040523480156200001157600080fd5b50604051620011bb380380620011bb833981810160405281019062000037919062000129565b336000806101000a81548173ffffffffffffffffffffffffffffffffffffffff021916908373ffffffffffffffffffffffffffffffffffffffff16021790555080600160006101000a81548173ffffffffffffffffffffffffffffffffffffffff021916908373ffffffffffffffffffffffffffffffffffffffff160217905550506200015b565b600080fd5b600073ffffffffffffffffffffffffffffffffffffffff82169050919050565b6000620000f182620000c4565b9050919050565b6200010381620000e4565b81146200010f57600080fd5b50565b6000815190506200012381620000f8565b92915050565b600060208284031215620001425762000141620000bf565b5b6000620001528482850162000112565b91505092915050565b611050806200016b6000396000f3fe608060405234801561001057600080fd5b50600436106100625760003560e01c8063128e0423146100675780631e9b13121461008557806331737315146100a357806338cc4831146100bf5780638da5cb5b146100dd578063c1f55c45146100fb575b600080fd5b61006f61012b565b60405161007c9190610959565b60405180910390f35b61008d610247565b60405161009a919061098a565b60405180910390f35b6100bd60048036038101906100b89190610c11565b61026d565b005b6100c76104af565b6040516100d4919061098a565b60405180910390f35b6100e56104d9565b6040516100f2919061098a565b60405180910390f35b61011560048036038101906101109190610ccc565b6104fd565b6040516101229190610e43565b60405180910390f35b606060008054906101000a900473ffffffffffffffffffffffffffffffffffffffff1673ffffffffffffffffffffffffffffffffffffffff163373ffffffffffffffffffffffffffffffffffffffff16146101bb576040517f08c379a00000000000000000000000000000000000000000000000000000000081526004016101b290610ee8565b60405180910390fd5b600380548060200260200160405190810160405280929190818152602001828054801561023d57602002820191906000526020600020905b8160009054906101000a900473ffffffffffffffffffffffffffffffffffffffff1673ffffffffffffffffffffffffffffffffffffffff16815260200190600101908083116101f3575b5050505050905090565b600160009054906101000a900473ffffffffffffffffffffffffffffffffffffffff1681565b60008054906101000a900473ffffffffffffffffffffffffffffffffffffffff1673ffffffffffffffffffffffffffffffffffffffff163373ffffffffffffffffffffffffffffffffffffffff16146102fb576040517f08c379a00000000000000000000000000000000000000000000000000000000081526004016102f290610ee8565b60405180910390fd5b600260008573ffffffffffffffffffffffffffffffffffffffff1673ffffffffffffffffffffffffffffffffffffffff168152602001908152602001600020839080600181540180825580915050600190039060005260206000200160009091909190915090805190602001906103739291906107c6565b5060005b825181101561042657600260008673ffffffffffffffffffffffffffffffffffffffff1673ffffffffffffffffffffffffffffffffffffffff1681526020019081526020016000208382815181106103d2576103d1610f08565b5b60200260200101519080600181540180825580915050600190039060005260206000200160009091909190915090805190602001906104129291906107c6565b50808061041e90610f70565b915050610377565b50600260008573ffffffffffffffffffffffffffffffffffffffff1673ffffffffffffffffffffffffffffffffffffffff1681526020019081526020016000208190806001815401808255809150506001900390600052602060002001600090919091909150908051906020019061049f9291906107c6565b506104a9846106a3565b50505050565b6000600160009054906101000a900473ffffffffffffffffffffffffffffffffffffffff16905090565b60008054906101000a900473ffffffffffffffffffffffffffffffffffffffff1681565b606060008054906101000a900473ffffffffffffffffffffffffffffffffffffffff1673ffffffffffffffffffffffffffffffffffffffff163373ffffffffffffffffffffffffffffffffffffffff161461058d576040517f08c379a000000000000000000000000000000000000000000000000000000000815260040161058490610ee8565b60405180910390fd5b600260008373ffffffffffffffffffffffffffffffffffffffff1673ffffffffffffffffffffffffffffffffffffffff168152602001908152602001600020805480602002602001604051908101604052809291908181526020016000905b8282101561069857838290600052602060002001805461060b90610fe8565b80601f016020809104026020016040519081016040528092919081815260200182805461063790610fe8565b80156106845780601f1061065957610100808354040283529160200191610684565b820191906000526020600020905b81548152906001019060200180831161066757829003601f168201915b5050505050815260200190600101906105ec565b505050509050919050565b6106ac81610717565b610714576003819080600181540180825580915050600190039060005260206000200160009091909190916101000a81548173ffffffffffffffffffffffffffffffffffffffff021916908373ffffffffffffffffffffffffffffffffffffffff1602179055505b50565b600080600090505b6003805490508110156107bb578273ffffffffffffffffffffffffffffffffffffffff166003828154811061075757610756610f08565b5b9060005260206000200160009054906101000a900473ffffffffffffffffffffffffffffffffffffffff1673ffffffffffffffffffffffffffffffffffffffff1614156107a85760019150506107c1565b80806107b390610f70565b91505061071f565b50600090505b919050565b8280546107d290610fe8565b90600052602060002090601f0160209004810192826107f4576000855561083b565b82601f1061080d57805160ff191683800117855561083b565b8280016001018555821561083b579182015b8281111561083a57825182559160200191906001019061081f565b5b509050610848919061084c565b5090565b5b8082111561086557600081600090555060010161084d565b5090565b600081519050919050565b600082825260208201905092915050565b6000819050602082019050919050565b600073ffffffffffffffffffffffffffffffffffffffff82169050919050565b60006108c082610895565b9050919050565b6108d0816108b5565b82525050565b60006108e283836108c7565b60208301905092915050565b6000602082019050919050565b600061090682610869565b6109108185610874565b935061091b83610885565b8060005b8381101561094c57815161093388826108d6565b975061093e836108ee565b92505060018101905061091f565b5085935050505092915050565b6000602082019050818103600083015261097381846108fb565b905092915050565b610984816108b5565b82525050565b600060208201905061099f600083018461097b565b92915050565b6000604051905090565b600080fd5b600080fd5b6109c2816108b5565b81146109cd57600080fd5b50565b6000813590506109df816109b9565b92915050565b600080fd5b600080fd5b6000601f19601f8301169050919050565b7f4e487b7100000000000000000000000000000000000000000000000000000000600052604160045260246000fd5b610a38826109ef565b810181811067ffffffffffffffff82111715610a5757610a56610a00565b5b80604052505050565b6000610a6a6109a5565b9050610a768282610a2f565b919050565b600067ffffffffffffffff821115610a9657610a95610a00565b5b610a9f826109ef565b9050602081019050919050565b82818337600083830152505050565b6000610ace610ac984610a7b565b610a60565b905082815260208101848484011115610aea57610ae96109ea565b5b610af5848285610aac565b509392505050565b600082601f830112610b1257610b116109e5565b5b8135610b22848260208601610abb565b91505092915050565b600067ffffffffffffffff821115610b4657610b45610a00565b5b602082029050602081019050919050565b600080fd5b6000610b6f610b6a84610b2b565b610a60565b90508083825260208201905060208402830185811115610b9257610b91610b57565b5b835b81811015610bd957803567ffffffffffffffff811115610bb757610bb66109e5565b5b808601610bc48982610afd565b85526020850194505050602081019050610b94565b5050509392505050565b600082601f830112610bf857610bf76109e5565b5b8135610c08848260208601610b5c565b91505092915050565b60008060008060808587031215610c2b57610c2a6109af565b5b6000610c39878288016109d0565b945050602085013567ffffffffffffffff811115610c5a57610c596109b4565b5b610c6687828801610afd565b935050604085013567ffffffffffffffff811115610c8757610c866109b4565b5b610c9387828801610be3565b925050606085013567ffffffffffffffff811115610cb457610cb36109b4565b5b610cc087828801610afd565b91505092959194509250565b600060208284031215610ce257610ce16109af565b5b6000610cf0848285016109d0565b91505092915050565b600081519050919050565b600082825260208201905092915050565b6000819050602082019050919050565b600081519050919050565b600082825260208201905092915050565b60005b83811015610d5f578082015181840152602081019050610d44565b83811115610d6e576000848401525b50505050565b6000610d7f82610d25565b610d898185610d30565b9350610d99818560208601610d41565b610da2816109ef565b840191505092915050565b6000610db98383610d74565b905092915050565b6000602082019050919050565b6000610dd982610cf9565b610de38185610d04565b935083602082028501610df585610d15565b8060005b85811015610e315784840389528151610e128582610dad565b9450610e1d83610dc1565b925060208a01995050600181019050610df9565b50829750879550505050505092915050565b60006020820190508181036000830152610e5d8184610dce565b905092915050565b600082825260208201905092915050565b7f4f6e6c7920746865206f776e65722063616e2063616c6c20746869732066756e60008201527f6374696f6e000000000000000000000000000000000000000000000000000000602082015250565b6000610ed2602583610e65565b9150610edd82610e76565b604082019050919050565b60006020820190508181036000830152610f0181610ec5565b9050919050565b7f4e487b7100000000000000000000000000000000000000000000000000000000600052603260045260246000fd5b7f4e487b7100000000000000000000000000000000000000000000000000000000600052601160045260246000fd5b6000819050919050565b6000610f7b82610f66565b91507fffffffffffffffffffffffffffffffffffffffffffffffffffffffffffffffff821415610fae57610fad610f37565b5b600182019050919050565b7f4e487b7100000000000000000000000000000000000000000000000000000000600052602260045260246000fd5b6000600282049050600182168061100057607f821691505b6020821081141561101457611013610fb9565b5b5091905056fea26469706673582212206af6bee72bc506c5260bfba9e0a426026a61f97ef06aef284b2f2f8ccf4625d664736f6c63430008090033",
  "linkReferences": {},
  "deployedLinkReferences": {}
}