{
  "_format": "hh-sol-artifact-1",
  "contractName": "DataTransfer",
  "sourceName": "contracts/DataTransfer.sol",
  "abi": [
    {
      "inputs": [
        {
          "internalType": "address",
          "name": "account",
          "type": "address"
        }
      ],
      "name": "checkAccount",
      "outputs": [
        {
          "internalType": "bool",
          "name": "",
          "type": "bool"
        }
      ],
      "stateMutability": "view",
      "type": "function"
    },
    {
      "inputs": [
        {
          "internalType": "address",
          "name": "account",
          "type": "address"
        }
      ],
      "name": "createAccount",
      "outputs": [
        {
          "internalType": "contract Account",
          "name": "",
          "type": "address"
        }
      ],
      "stateMutability": "nonpayable",
      "type": "function"
    },
    {
      "inputs": [],
      "name": "getAccounts",
      "outputs": [
        {
          "internalType": "address[]",
          "name": "",
          "type": "address[]"
        }
      ],
      "stateMutability": "view",
      "type": "function"
    },
    {
      "inputs": [
        {
          "internalType": "address",
          "name": "account",
          "type": "address"
        }
      ],
      "name": "getReceivedFrom",
      "outputs": [
        {
          "internalType": "string[]",
          "name": "",
          "type": "string[]"
        }
      ],
      "stateMutability": "view",
      "type": "function"
    },
    {
      "inputs": [],
      "name": "getSenders",
      "outputs": [
        {
          "internalType": "address[]",
          "name": "",
          "type": "address[]"
        }
      ],
      "stateMutability": "view",
      "type": "function"
    },
    {
      "inputs": [
        {
          "internalType": "address",
          "name": "account",
          "type": "address"
        },
        {
          "internalType": "string",
          "name": "IPFSHash",
          "type": "string"
        },
        {
          "internalType": "string[]",
          "name": "aesKey",
          "type": "string[]"
        },
        {
          "internalType": "string",
          "name": "fileName",
          "type": "string"
        }
      ],
      "name": "sendFile",
      "outputs": [],
      "stateMutability": "nonpayable",
      "type": "function"
    }
  ],
  "bytecode": "0x608060405234801561001057600080fd5b506126cf806100206000396000f3fe60806040523480156200001157600080fd5b50600436106200006a5760003560e01c8063128e0423146200006f5780634c070ced146200009157806369921c2614620000c75780638a48ac0314620000fd5780639859387b146200011f578063e6b468261462000155575b600080fd5b6200007962000175565b604051620000889190620009bc565b60405180910390f35b620000af6004803603810190620000a9919062000a25565b6200020d565b604051620000be919062000bcb565b60405180910390f35b620000e56004803603810190620000df919062000a25565b620002b4565b604051620000f4919062000c0c565b60405180910390f35b62000107620003ed565b604051620001169190620009bc565b60405180910390f35b6200013d600480360381019062000137919062000a25565b62000586565b6040516200014c919062000c94565b60405180910390f35b6200017360048036038101906200016d919062000efe565b62000655565b005b60606200018233620006ec565b73ffffffffffffffffffffffffffffffffffffffff1663128e04236040518163ffffffff1660e01b815260040160006040518083038186803b158015620001c857600080fd5b505afa158015620001dd573d6000803e3d6000fd5b505050506040513d6000823e3d601f19601f82011682018060405250810190620002089190620010ba565b905090565b60606200021a33620006ec565b73ffffffffffffffffffffffffffffffffffffffff1663c1f55c45836040518263ffffffff1660e01b81526004016200025491906200111c565b60006040518083038186803b1580156200026d57600080fd5b505afa15801562000282573d6000803e3d6000fd5b505050506040513d6000823e3d601f19601f82011682018060405250810190620002ad91906200127f565b9050919050565b600080600090505b600080549050811015620003e2578273ffffffffffffffffffffffffffffffffffffffff1660008281548110620002f857620002f7620012d0565b5b9060005260206000200160009054906101000a900473ffffffffffffffffffffffffffffffffffffffff1673ffffffffffffffffffffffffffffffffffffffff166338cc48316040518163ffffffff1660e01b815260040160206040518083038186803b1580156200036957600080fd5b505afa1580156200037e573d6000803e3d6000fd5b505050506040513d601f19601f82011682018060405250810190620003a49190620012ff565b73ffffffffffffffffffffffffffffffffffffffff161415620003cc576001915050620003e8565b8080620003d9906200136a565b915050620002bc565b50600090505b919050565b60606000808054905067ffffffffffffffff81111562000412576200041162000cbb565b5b604051908082528060200260200182016040528015620004415781602001602082028036833780820191505090505b50905060005b6000805490508110156200057e57600081815481106200046c576200046b620012d0565b5b9060005260206000200160009054906101000a900473ffffffffffffffffffffffffffffffffffffffff1673ffffffffffffffffffffffffffffffffffffffff166338cc48316040518163ffffffff1660e01b815260040160206040518083038186803b158015620004dd57600080fd5b505afa158015620004f2573d6000803e3d6000fd5b505050506040513d601f19601f82011682018060405250810190620005189190620012ff565b8282815181106200052e576200052d620012d0565b5b602002602001019073ffffffffffffffffffffffffffffffffffffffff16908173ffffffffffffffffffffffffffffffffffffffff1681525050808062000575906200136a565b91505062000447565b508091505090565b60006200059382620002b4565b6200064257600082604051620005a990620008ac565b620005b591906200111c565b604051809103906000f080158015620005d2573d6000803e3d6000fd5b5090506000819080600181540180825580915050600190039060005260206000200160009091909190916101000a81548173ffffffffffffffffffffffffffffffffffffffff021916908373ffffffffffffffffffffffffffffffffffffffff1602179055508091505062000650565b6200064d82620006ec565b90505b919050565b620006608462000586565b5060006200066e85620006ec565b90508073ffffffffffffffffffffffffffffffffffffffff166331737315338686866040518563ffffffff1660e01b8152600401620006b194939291906200140a565b600060405180830381600087803b158015620006cc57600080fd5b505af1158015620006e1573d6000803e3d6000fd5b505050505050505050565b6000620006f982620002b4565b156200086a5760005b60008054905081101562000868578273ffffffffffffffffffffffffffffffffffffffff16600082815481106200073e576200073d620012d0565b5b9060005260206000200160009054906101000a900473ffffffffffffffffffffffffffffffffffffffff1673ffffffffffffffffffffffffffffffffffffffff166338cc48316040518163ffffffff1660e01b815260040160206040518083038186803b158015620007af57600080fd5b505afa158015620007c4573d6000803e3d6000fd5b505050506040513d601f19601f82011682018060405250810190620007ea9190620012ff565b73ffffffffffffffffffffffffffffffffffffffff1614156200085257600081815481106200081e576200081d620012d0565b5b9060005260206000200160009054906101000a900473ffffffffffffffffffffffffffffffffffffffff16915050620008a7565b80806200085f906200136a565b91505062000702565b505b6040517f08c379a00000000000000000000000000000000000000000000000000000000081526004016200089e90620014bc565b60405180910390fd5b919050565b6111bb80620014df83390190565b600081519050919050565b600082825260208201905092915050565b6000819050602082019050919050565b600073ffffffffffffffffffffffffffffffffffffffff82169050919050565b60006200091382620008e6565b9050919050565b620009258162000906565b82525050565b60006200093983836200091a565b60208301905092915050565b6000602082019050919050565b60006200095f82620008ba565b6200096b8185620008c5565b93506200097883620008d6565b8060005b83811015620009af5781516200099388826200092b565b9750620009a08362000945565b9250506001810190506200097c565b5085935050505092915050565b60006020820190508181036000830152620009d8818462000952565b905092915050565b6000604051905090565b600080fd5b600080fd5b620009ff8162000906565b811462000a0b57600080fd5b50565b60008135905062000a1f81620009f4565b92915050565b60006020828403121562000a3e5762000a3d620009ea565b5b600062000a4e8482850162000a0e565b91505092915050565b600081519050919050565b600082825260208201905092915050565b6000819050602082019050919050565b600081519050919050565b600082825260208201905092915050565b60005b8381101562000abf57808201518184015260208101905062000aa2565b8381111562000acf576000848401525b50505050565b6000601f19601f8301169050919050565b600062000af38262000a83565b62000aff818562000a8e565b935062000b1181856020860162000a9f565b62000b1c8162000ad5565b840191505092915050565b600062000b35838362000ae6565b905092915050565b6000602082019050919050565b600062000b578262000a57565b62000b63818562000a62565b93508360208202850162000b778562000a73565b8060005b8581101562000bb9578484038952815162000b97858262000b27565b945062000ba48362000b3d565b925060208a0199505060018101905062000b7b565b50829750879550505050505092915050565b6000602082019050818103600083015262000be7818462000b4a565b905092915050565b60008115159050919050565b62000c068162000bef565b82525050565b600060208201905062000c23600083018462000bfb565b92915050565b6000819050919050565b600062000c5462000c4e62000c4884620008e6565b62000c29565b620008e6565b9050919050565b600062000c688262000c33565b9050919050565b600062000c7c8262000c5b565b9050919050565b62000c8e8162000c6f565b82525050565b600060208201905062000cab600083018462000c83565b92915050565b600080fd5b600080fd5b7f4e487b7100000000000000000000000000000000000000000000000000000000600052604160045260246000fd5b62000cf58262000ad5565b810181811067ffffffffffffffff8211171562000d175762000d1662000cbb565b5b80604052505050565b600062000d2c620009e0565b905062000d3a828262000cea565b919050565b600067ffffffffffffffff82111562000d5d5762000d5c62000cbb565b5b62000d688262000ad5565b9050602081019050919050565b82818337600083830152505050565b600062000d9b62000d958462000d3f565b62000d20565b90508281526020810184848401111562000dba5762000db962000cb6565b5b62000dc784828562000d75565b509392505050565b600082601f83011262000de75762000de662000cb1565b5b813562000df984826020860162000d84565b91505092915050565b600067ffffffffffffffff82111562000e205762000e1f62000cbb565b5b602082029050602081019050919050565b600080fd5b600062000e4d62000e478462000e02565b62000d20565b9050808382526020820190506020840283018581111562000e735762000e7262000e31565b5b835b8181101562000ec157803567ffffffffffffffff81111562000e9c5762000e9b62000cb1565b5b80860162000eab898262000dcf565b8552602085019450505060208101905062000e75565b5050509392505050565b600082601f83011262000ee35762000ee262000cb1565b5b813562000ef584826020860162000e36565b91505092915050565b6000806000806080858703121562000f1b5762000f1a620009ea565b5b600062000f2b8782880162000a0e565b945050602085013567ffffffffffffffff81111562000f4f5762000f4e620009ef565b5b62000f5d8782880162000dcf565b935050604085013567ffffffffffffffff81111562000f815762000f80620009ef565b5b62000f8f8782880162000ecb565b925050606085013567ffffffffffffffff81111562000fb35762000fb2620009ef565b5b62000fc18782880162000dcf565b91505092959194509250565b600067ffffffffffffffff82111562000feb5762000fea62000cbb565b5b602082029050602081019050919050565b6000815190506200100d81620009f4565b92915050565b60006200102a620010248462000fcd565b62000d20565b9050808382526020820190506020840283018581111562001050576200104f62000e31565b5b835b818110156200107d578062001068888262000ffc565b84526020840193505060208101905062001052565b5050509392505050565b600082601f8301126200109f576200109e62000cb1565b5b8151620010b184826020860162001013565b91505092915050565b600060208284031215620010d357620010d2620009ea565b5b600082015167ffffffffffffffff811115620010f457620010f3620009ef565b5b620011028482850162001087565b91505092915050565b620011168162000906565b82525050565b60006020820190506200113360008301846200110b565b92915050565b6000620011506200114a8462000d3f565b62000d20565b9050828152602081018484840111156200116f576200116e62000cb6565b5b6200117c84828562000a9f565b509392505050565b600082601f8301126200119c576200119b62000cb1565b5b8151620011ae84826020860162001139565b91505092915050565b6000620011ce620011c88462000e02565b62000d20565b90508083825260208201905060208402830185811115620011f457620011f362000e31565b5b835b818110156200124257805167ffffffffffffffff8111156200121d576200121c62000cb1565b5b8086016200122c898262001184565b85526020850194505050602081019050620011f6565b5050509392505050565b600082601f83011262001264576200126362000cb1565b5b815162001276848260208601620011b7565b91505092915050565b600060208284031215620012985762001297620009ea565b5b600082015167ffffffffffffffff811115620012b957620012b8620009ef565b5b620012c7848285016200124c565b91505092915050565b7f4e487b7100000000000000000000000000000000000000000000000000000000600052603260045260246000fd5b600060208284031215620013185762001317620009ea565b5b6000620013288482850162000ffc565b91505092915050565b7f4e487b7100000000000000000000000000000000000000000000000000000000600052601160045260246000fd5b6000819050919050565b6000620013778262001360565b91507fffffffffffffffffffffffffffffffffffffffffffffffffffffffffffffffff821415620013ad57620013ac62001331565b5b600182019050919050565b600082825260208201905092915050565b6000620013d68262000a83565b620013e28185620013b8565b9350620013f481856020860162000a9f565b620013ff8162000ad5565b840191505092915050565b60006080820190506200142160008301876200110b565b8181036020830152620014358186620013c9565b905081810360408301526200144b818562000b4a565b90508181036060830152620014618184620013c9565b905095945050505050565b7f4163636f756e7420646f6573206e6f7420657869737400000000000000000000600082015250565b6000620014a4601683620013b8565b9150620014b1826200146c565b602082019050919050565b60006020820190508181036000830152620014d78162001495565b905091905056fe60806040523480156200001157600080fd5b50604051620011bb380380620011bb833981810160405281019062000037919062000129565b336000806101000a81548173ffffffffffffffffffffffffffffffffffffffff021916908373ffffffffffffffffffffffffffffffffffffffff16021790555080600160006101000a81548173ffffffffffffffffffffffffffffffffffffffff021916908373ffffffffffffffffffffffffffffffffffffffff160217905550506200015b565b600080fd5b600073ffffffffffffffffffffffffffffffffffffffff82169050919050565b6000620000f182620000c4565b9050919050565b6200010381620000e4565b81146200010f57600080fd5b50565b6000815190506200012381620000f8565b92915050565b600060208284031215620001425762000141620000bf565b5b6000620001528482850162000112565b91505092915050565b611050806200016b6000396000f3fe608060405234801561001057600080fd5b50600436106100625760003560e01c8063128e0423146100675780631e9b13121461008557806331737315146100a357806338cc4831146100bf5780638da5cb5b146100dd578063c1f55c45146100fb575b600080fd5b61006f61012b565b60405161007c9190610959565b60405180910390f35b61008d610247565b60405161009a919061098a565b60405180910390f35b6100bd60048036038101906100b89190610c11565b61026d565b005b6100c76104af565b6040516100d4919061098a565b60405180910390f35b6100e56104d9565b6040516100f2919061098a565b60405180910390f35b61011560048036038101906101109190610ccc565b6104fd565b6040516101229190610e43565b60405180910390f35b606060008054906101000a900473ffffffffffffffffffffffffffffffffffffffff1673ffffffffffffffffffffffffffffffffffffffff163373ffffffffffffffffffffffffffffffffffffffff16146101bb576040517f08c379a00000000000000000000000000000000000000000000000000000000081526004016101b290610ee8565b60405180910390fd5b600380548060200260200160405190810160405280929190818152602001828054801561023d57602002820191906000526020600020905b8160009054906101000a900473ffffffffffffffffffffffffffffffffffffffff1673ffffffffffffffffffffffffffffffffffffffff16815260200190600101908083116101f3575b5050505050905090565b600160009054906101000a900473ffffffffffffffffffffffffffffffffffffffff1681565b60008054906101000a900473ffffffffffffffffffffffffffffffffffffffff1673ffffffffffffffffffffffffffffffffffffffff163373ffffffffffffffffffffffffffffffffffffffff16146102fb576040517f08c379a00000000000000000000000000000000000000000000000000000000081526004016102f290610ee8565b60405180910390fd5b600260008573ffffffffffffffffffffffffffffffffffffffff1673ffffffffffffffffffffffffffffffffffffffff168152602001908152602001600020839080600181540180825580915050600190039060005260206000200160009091909190915090805190602001906103739291906107c6565b5060005b825181101561042657600260008673ffffffffffffffffffffffffffffffffffffffff1673ffffffffffffffffffffffffffffffffffffffff1681526020019081526020016000208382815181106103d2576103d1610f08565b5b60200260200101519080600181540180825580915050600190039060005260206000200160009091909190915090805190602001906104129291906107c6565b50808061041e90610f70565b915050610377565b50600260008573ffffffffffffffffffffffffffffffffffffffff1673ffffffffffffffffffffffffffffffffffffffff1681526020019081526020016000208190806001815401808255809150506001900390600052602060002001600090919091909150908051906020019061049f9291906107c6565b506104a9846106a3565b50505050565b6000600160009054906101000a900473ffffffffffffffffffffffffffffffffffffffff16905090565b60008054906101000a900473ffffffffffffffffffffffffffffffffffffffff1681565b606060008054906101000a900473ffffffffffffffffffffffffffffffffffffffff1673ffffffffffffffffffffffffffffffffffffffff163373ffffffffffffffffffffffffffffffffffffffff161461058d576040517f08c379a000000000000000000000000000000000000000000000000000000000815260040161058490610ee8565b60405180910390fd5b600260008373ffffffffffffffffffffffffffffffffffffffff1673ffffffffffffffffffffffffffffffffffffffff168152602001908152602001600020805480602002602001604051908101604052809291908181526020016000905b8282101561069857838290600052602060002001805461060b90610fe8565b80601f016020809104026020016040519081016040528092919081815260200182805461063790610fe8565b80156106845780601f1061065957610100808354040283529160200191610684565b820191906000526020600020905b81548152906001019060200180831161066757829003601f168201915b5050505050815260200190600101906105ec565b505050509050919050565b6106ac81610717565b610714576003819080600181540180825580915050600190039060005260206000200160009091909190916101000a81548173ffffffffffffffffffffffffffffffffffffffff021916908373ffffffffffffffffffffffffffffffffffffffff1602179055505b50565b600080600090505b6003805490508110156107bb578273ffffffffffffffffffffffffffffffffffffffff166003828154811061075757610756610f08565b5b9060005260206000200160009054906101000a900473ffffffffffffffffffffffffffffffffffffffff1673ffffffffffffffffffffffffffffffffffffffff1614156107a85760019150506107c1565b80806107b390610f70565b91505061071f565b50600090505b919050565b8280546107d290610fe8565b90600052602060002090601f0160209004810192826107f4576000855561083b565b82601f1061080d57805160ff191683800117855561083b565b8280016001018555821561083b579182015b8281111561083a57825182559160200191906001019061081f565b5b509050610848919061084c565b5090565b5b8082111561086557600081600090555060010161084d565b5090565b600081519050919050565b600082825260208201905092915050565b6000819050602082019050919050565b600073ffffffffffffffffffffffffffffffffffffffff82169050919050565b60006108c082610895565b9050919050565b6108d0816108b5565b82525050565b60006108e283836108c7565b60208301905092915050565b6000602082019050919050565b600061090682610869565b6109108185610874565b935061091b83610885565b8060005b8381101561094c57815161093388826108d6565b975061093e836108ee565b92505060018101905061091f565b5085935050505092915050565b6000602082019050818103600083015261097381846108fb565b905092915050565b610984816108b5565b82525050565b600060208201905061099f600083018461097b565b92915050565b6000604051905090565b600080fd5b600080fd5b6109c2816108b5565b81146109cd57600080fd5b50565b6000813590506109df816109b9565b92915050565b600080fd5b600080fd5b6000601f19601f8301169050919050565b7f4e487b7100000000000000000000000000000000000000000000000000000000600052604160045260246000fd5b610a38826109ef565b810181811067ffffffffffffffff82111715610a5757610a56610a00565b5b80604052505050565b6000610a6a6109a5565b9050610a768282610a2f565b919050565b600067ffffffffffffffff821115610a9657610a95610a00565b5b610a9f826109ef565b9050602081019050919050565b82818337600083830152505050565b6000610ace610ac984610a7b565b610a60565b905082815260208101848484011115610aea57610ae96109ea565b5b610af5848285610aac565b509392505050565b600082601f830112610b1257610b116109e5565b5b8135610b22848260208601610abb565b91505092915050565b600067ffffffffffffffff821115610b4657610b45610a00565b5b602082029050602081019050919050565b600080fd5b6000610b6f610b6a84610b2b565b610a60565b90508083825260208201905060208402830185811115610b9257610b91610b57565b5b835b81811015610bd957803567ffffffffffffffff811115610bb757610bb66109e5565b5b808601610bc48982610afd565b85526020850194505050602081019050610b94565b5050509392505050565b600082601f830112610bf857610bf76109e5565b5b8135610c08848260208601610b5c565b91505092915050565b60008060008060808587031215610c2b57610c2a6109af565b5b6000610c39878288016109d0565b945050602085013567ffffffffffffffff811115610c5a57610c596109b4565b5b610c6687828801610afd565b935050604085013567ffffffffffffffff811115610c8757610c866109b4565b5b610c9387828801610be3565b925050606085013567ffffffffffffffff811115610cb457610cb36109b4565b5b610cc087828801610afd565b91505092959194509250565b600060208284031215610ce257610ce16109af565b5b6000610cf0848285016109d0565b91505092915050565b600081519050919050565b600082825260208201905092915050565b6000819050602082019050919050565b600081519050919050565b600082825260208201905092915050565b60005b83811015610d5f578082015181840152602081019050610d44565b83811115610d6e576000848401525b50505050565b6000610d7f82610d25565b610d898185610d30565b9350610d99818560208601610d41565b610da2816109ef565b840191505092915050565b6000610db98383610d74565b905092915050565b6000602082019050919050565b6000610dd982610cf9565b610de38185610d04565b935083602082028501610df585610d15565b8060005b85811015610e315784840389528151610e128582610dad565b9450610e1d83610dc1565b925060208a01995050600181019050610df9565b50829750879550505050505092915050565b60006020820190508181036000830152610e5d8184610dce565b905092915050565b600082825260208201905092915050565b7f4f6e6c7920746865206f776e65722063616e2063616c6c20746869732066756e60008201527f6374696f6e000000000000000000000000000000000000000000000000000000602082015250565b6000610ed2602583610e65565b9150610edd82610e76565b604082019050919050565b60006020820190508181036000830152610f0181610ec5565b9050919050565b7f4e487b7100000000000000000000000000000000000000000000000000000000600052603260045260246000fd5b7f4e487b7100000000000000000000000000000000000000000000000000000000600052601160045260246000fd5b6000819050919050565b6000610f7b82610f66565b91507fffffffffffffffffffffffffffffffffffffffffffffffffffffffffffffffff821415610fae57610fad610f37565b5b600182019050919050565b7f4e487b7100000000000000000000000000000000000000000000000000000000600052602260045260246000fd5b6000600282049050600182168061100057607f821691505b6020821081141561101457611013610fb9565b5b5091905056fea26469706673582212206af6bee72bc506c5260bfba9e0a426026a61f97ef06aef284b2f2f8ccf4625d664736f6c63430008090033a26469706673582212200336f46b0baeeb7f84e62106c44fd85a55bf861df1e3c8b345edb4913ac3292064736f6c63430008090033",
  "linkReferences": {},
  "deployedLinkReferences": {}
}